:100000000C943E000C945B000C945B000C945B0021
:100010000C945B000C945B000C945B000C945B00F4
:100020000C945B000C945B000C945B000C945B00E4
:100030000C945B000C945B000C945B000C945B00D4
:100040000C945B000C945B000C945B000C945B00C4
:100050000C945B000C945B000C945B000C945B00B4
:100060000C945B000C945B000C945B000C945B00A4
:100070000C945B000C945B000C945B0011241FBE7D
:10008000CFEFD4E0DEBFCDBF11E0A0E0B1E0E0E112
:10009000FEE002C005900D92AE30B107D9F711E035
:1000A000AEE0B1E001C01D92AB31B107E1F70E94B3
:1000B000BE060C9406070C940000CF93DF9300D08B
:1000C000CDB7DEB71A82198205C089819A8101965F
:1000D0009A83898389819A8188399A43B0F30F90F2
:1000E0000F90DF91CF910895FC0184910895909332
:1000F0001A018093190170931801609317014093BE
:1001000013010895CF93DF93D82F80911901909117
:100110001A01E0911701F091180104960995C82F72
:100120008091190190911A01E0911701F091180145
:10013000059609954D2F552747FD50956C2F70E07A
:1001400046175707CCF0680F711D46175707A4F4E0
:10015000DC1B2D2F332727FD30952A5F3F4F8091E1
:10016000190190911A01E0911701F0911801820F85
:10017000931F09958F5F01C080E0DF91CF910895B3
:100180000F931F93CF93DF93EC0100E010E004C0C6
:100190000E948200080F111D89918111F9CFC801B9
:1001A000DF91CF911F910F9108950F931F93CF93DC
:1001B000DF938C01C0E0D0E008C00F5F1F4FFC014F
:1001C00084910E948200C80FD11DC801F8012491BA
:1001D0002111F3CFCE01DF91CF911F910F9108959F
:1001E000CF93DF931F92CDB7DEB7429A0000000095
:1001F00000004298198203C089818F5F89838981B9
:100200008830D0F30F90DF91CF910895611103C032
:100210004498439A04C0613011F44398449A40983A
:1002200041989FEF9AB98BB90E94F0001BB80895CE
:10023000CF9387FD80E0603408F060E08093140184
:1002400060931501669566956695609316018034F6
:1002500018F0805461E001C060E080640E940601F3
:10026000C0911601C86B60E08C2F0E94060161E00E
:100270008C2FCF910C9406011F93CF93DF931F9285
:10028000CDB7DEB71BB81AB890911401903418F4AA
:100290004498439A02C04398449A90911401903430
:1002A00031F4882321F061E080E40E940601409A45
:1002B000419A429A00000000000019B14298198248
:1002C00003C089818F5F898389818830D0F38FEF64
:1002D0008AB960911501809114010E9418018091E2
:1002E0000E0181111095812F0F90DF91CF911F91F9
:1002F000089581E00E943C0180E00C943C01CF9283
:10030000DF92FF920F931F93CF93DF931F92CDB78E
:10031000DEB7182F8091140187FD65C0803418F472
:100320004498439A02C04398449A809114018034BF
:1003300019F461E00E940601409A41980FEF0AB952
:1003400020911501277009F441C0F8B029830E945B
:100350007901F8B80AB9C12ED12C2981022F10E0F9
:10036000A60102C0440F551F2A95E2F7842B9091F5
:100370000E01911180958BB90E94F00060911501DA
:10038000685F809114010E9418010E947901F8B8F9
:100390009FEF9AB928E030E0201B310BF60102C034
:1003A000F595E7952A95E2F79F01282B80910E019C
:1003B000811120952BB90E94F000609115016850C1
:1003C000809114018F5F0E9418010CC080910E0172
:1003D000811110951BB90E94F000809114018F5F6C
:1003E000809314011BB80F90DF91CF911F910F9153
:1003F000FF90DF90CF9008952F923F924F925F929F
:100400006F927F928F929F92AF92BF92CF92DF9224
:10041000EF92FF920F931F93CF93DF9300D000D002
:100420001F92CDB7DEB7C82E8091190190911A01A5
:10043000E0911701F091180103960995A82E80917B
:10044000190190911A01E0911701F0911801049699
:100450000995182F8091190190911A01E0911701C7
:10046000F091180105960995982E2090140180911D
:10047000150189832C2D332727FD3095412F50E01E
:10048000241735070CF4A1C0490D511D2417350759
:100490000CF09BC0C11AF12C00E010E0DD24C7FC79
:1004A000D09410C02A5F3F4F8091190190911A019A
:1004B000E0911701F0911801820F931F0995080F21
:1004C000111DF3942F2D30E02C153D055CF3B12C5C
:1004D000750197E0E90EF11C83E0F594E7948A95A5
:1004E000E1F70E9D90010F9D300D1E9D300D1124E2
:1004F000E92DF0E03696E20FF31FFD83EC83F6E082
:10050000CF0ED11C8091190190911A01E091170131
:10051000F09118018C0D9D1D0995582E98E0C92E5B
:10052000D12C412C312C350144C0C60186199709C4
:100530009B838A8300E010E08C809D80840C911C5A
:1005400022C0C401800F911F2091190130911A011E
:10055000E0911701F0911801820F931F0995AC14D7
:10056000BD043CF490E00A8002C0959587950A94FA
:10057000E2F7909113019F3F09F401C080950E941A
:100580007F010F5F1F4F0515E0F2809113018F3F30
:1005900011F480E001C08FEF0E947F01609115018E
:1005A000685F822D0E9418013394450C98E0C90EB3
:1005B000D11C3E1408F4B9CF822D8F5F6981850D5F
:1005C0000E94180120E030E002C021E030E0C901C3
:1005D0000F900F900F900F900F90DF91CF911F9180
:1005E0000F91FF90EF90DF90CF90BF90AF909F90D2
:1005F0008F907F906F905F904F903F902F900895D5
:100600000F931F93CF93DF93EC011091140117C048
:100610008A3091F4009115018091190190911A018D
:10062000E0911701F091180103960995682F600F6A
:10063000812F0E94180102C00E94FC012196FE0138
:1006400084918111E5CFDF91CF911F910F91089592
:100650000F931F93CF93DF9310911401EC0116C0F9
:100660008A3091F4009115018091190190911A013D
:10067000E0911701F091180103960995682F600F1A
:10068000812F0E94180102C00E94FC0189918111F2
:10069000E7CFDF91CF911F910F9108951F93CF93D3
:1006A000DF931F92CDB7DEB7162F687F49830E9474
:1006B00018010E9479011770498121E030E0012E74
:1006C00001C0220F0A94EAF74F3F11F4282B02C011
:1006D00020952823822F0F90DF91CF911F910C94AA
:1006E0007F01AF92BF92CF92DF92EF92FF920F9372
:1006F0001F93CF93DF93E82EF42ED22ED394262F80
:100700002770B62EB21ACD2DD0E0E8E0F0E0CF0190
:10071000821B9109C817D9075CF4EC1BFD0B0FEF86
:1007200010E002C015950795EA95E2F7CD2C04C0BC
:1007300038E0C32EC21A0FEF01C0000F2A95EAF766
:10074000A02E6B2D8E2D0E94180110E000950E94A6
:100750007901982F90959A218023892B0E947F01FF
:100760001F5FF116A0F71B2DCB180EC0185F612F6D
:100770008E2D0E94180100E00E94790180950E9450
:100780007F010F5FF016C0F78C2D810FE82FF0E08E
:10079000DF011796AC17BD074CF38D15F0F4CE1B97
:1007A000DF0B2FEF30E001C0220FCA95EAF7D22FFE
:1007B000D095612F685F8E2D0E941801C0E01D2F1B
:1007C00010950E947901982F90959D238123892B64
:1007D0000E947F01CF5FFC16A0F7DF91CF911F91A0
:1007E0000F91FF90EF90DF90CF90BF90AF90089562
:1007F000CF93C82F80910E018C1741F02FE34FE764
:1008000060E080E00E947103C0930E01CF910895D3
:100810009F92AF92BF92CF92DF92EF92FF920F938F
:100820001F93CF93DF93D82E142FC22EC394262F5D
:100830002770A62EA21ACC2DD0E0E8E0F0E0CF0180
:10084000821B9109C817D90764F4CF018C1B9D0B3B
:10085000EFEFF0E002C0F595E7958A95E2F7BC2C42
:1008600004C048E0B42EB21AEFEFEE2E01C0EE0C39
:100870002A95EAF79E2C6A2D8D2D0E941801F12CE5
:10088000E0940E9479010F3F11F4892901C08E2163
:100890000E947F01F3941F15A0F7FA2CBA180DC01F
:1008A00088E0F80E6F2D8D2D0E941801E12C802F0D
:1008B0000E947F01E3941E15D0F72B2D2F0DE22F00
:1008C000F0E0CF0107968C179D0754F32C15F0F438
:1008D000CE1BDF0B2FEF30E001C0220FCA95EAF7E5
:1008E000D22FD0956F2D685F8D2D0E941801C0E02A
:1008F000FD2EF0940E9479010F3F11F48D2B01C061
:100900008F210E947F01CF5F1C17A0F7DF91CF914D
:100910001F910F91FF90EF90DF90CF90BF90AF901D
:100920009F9008950F931092140110921501109248
:10093000160180930E018FEF87B960E08FE30E946C
:10094000060161E08FE30E94060160E080EC0E94F6
:10095000060161E080EC0E94060100E02FE34FE712
:1009600060E080E00E94080460E080E00F910C9459
:1009700018012F923F924F925F926F927F928F92C7
:100980009F92AF92BF92CF92DF92EF92FF920F931E
:100990001F93CF93DF93CDB7DEB72B970FB6F894A5
:1009A000DEBF0FBECDBF482E362E942F222EC02E76
:1009B000D12C222733272C193D09220F331F2D5FFD
:1009C0003F4F3B872A87342F380F3983301B3A83B8
:1009D000132F76E0872E912CA12CB12C702E730C46
:1009E000602E680E522D530D5B83501B5C83F32CDD
:1009F000F81AF20CF41A572D5C19362D3A194E2DAF
:100A0000652F832FA8863F835D8399870E944E03BD
:100A10002885772D721B262D2C194E2D672F822F9E
:100A200028877E830E944E034E2D5D81652F812F86
:100A30000E944E035A815C0D4E2D7E81672F852FBB
:100A40005D830E944E037C817C0D4E2D672F812F8C
:100A50007E830E944E035F2C510E4E2D652D5D81CD
:100A6000852F0E944E034E2D7E81672F3F81832F5D
:100A70000E944E034E2D652D2885822F0E944E0325
:100A800099852A853B8537FF05C0280D391D3B8791
:100A90002A8712C095012C193D09220F331F220FFE
:100AA000331F265F3F4F4A855B85420F531F5B878D
:100AB0004A8751E0C51AD1088FEFA81AB80A1F5FFC
:100AC000E4E08E0E911CCA14DB040CF094CF102FBE
:100AD0001195110FF12EF90E0E2D20E04F2D632DE3
:100AE000862D0E94080420E04F2D6B81862D0E94E8
:100AF0000804210E222D40E0672D842D0E94080459
:100B0000222D40E0672D89810E9408042B960FB6A4
:100B1000F894DEBF0FBECDBFDF91CF911F910F9133
:100B2000FF90EF90DF90CF90BF90AF909F908F900D
:100B30007F906F905F904F903F902F900895EF922D
:100B4000FF920F931F93CF93DF93C82FD62FE42EDE
:100B5000F22E20E00E9408046F2D6D0F20E04E2D34
:100B60008C2F0E9408042F2D40E06D2F8C2F0E94A7
:100B700008042F2D40E06D2F8E2D8C0F0E9408044D
:100B8000DF91CF911F910F91FF90EF9008952F92D9
:100B90003F924F925F926F927F928F929F92AF920D
:100BA000BF92CF92DF92EF92FF920F931F93CF935A
:100BB000DF93182F762E342E522E602E841309C008
:100BC000261710F4722E562E252D2719062D40E0DB
:100BD0000AC062130DC0481710F4142F382E432D8D
:100BE000411B062D20E0672D812F0E940804B3C011
:100BF00030E0462F50E0832D90E0811B9109B90130
:100C0000641B750B6817790734F4421B530B4817A4
:100C100059070CF450C0311630F4872D752C582E1E
:100C2000812F132D382E311AE52DF0E0872C912CD1
:100C30007F01E818F908C32DD0E028EC2E9DC001F3
:100C40002F9D900D1124BE010E94DE066B01372DF1
:100C5000412CA8ECAA2EB12C8E1A9F0A4C9CC001E4
:100C60004D9C900D1124B5010E94DE06272C260E06
:100C70008436910514F0239404C08D399F4F0CF4F1
:100C80002A94842D810F062D222D482F632F0E9438
:100C9000C705322DEC16FD0624F0751410F43F5FE5
:100CA00006C08C169D061CF0571408F4315043946E
:100CB0003414A0F650C0571430F4872D752C582EDC
:100CC000812F132D382E452C4718232D30E0A12ECF
:100CD000B12C7901EA18FB08C42DD0E048EC4E9DF8
:100CE000C0014F9D900D1124BE010E94DE066B01D4
:100CF000E12F512CF8EC8F2E912CA21AB30A5C9C98
:100D0000C0015D9C900D1124B4010E94DE06212ECD
:100D1000260E8436910514F0239404C08D399F4F1C
:100D20000CF42A94652D670D062D262F422D8E2F4B
:100D30000E94C705E22DEC16FD0624F0131510F4F1
:100D4000EF5F06C0AC16BD061CF0311608F4E1508A
:100D500053944514A0F6DF91CF911F910F91FF900E
:100D6000EF90DF90CF90BF90AF909F908F907F904B
:100D70006F905F904F903F902F900895CF93DF93A7
:100D8000CDB7DEB72D970FB6F894DEBF0FBECDBF3F
:100D90000E945D0080E00E9492048CE0E0E0F1E0BF
:100DA000DE01119601900D928A95E1F71D86CE0124
:100DB00001960E9428030E945D00FFCF97FB072E3B
:100DC00016F4009407D077FD09D00E94F20607FCC4
:100DD00005D03EF4909581959F4F0895709561954B
:100DE0007F4F0895AA1BBB1B51E107C0AA1FBB1F61
:100DF000A617B70710F0A61BB70B881F991F5A95A7
:100E0000A9F780959095BC01CD010895F894FFCF86
:0E0E100048656C6C6F20576F726C64000000B8
:00000001FF
