:100000000C943E000C9448000C9448000C9448005A
:100010000C9448000C9448000C9448000C94480040
:100020000C9448000C9448000C9448000C94480030
:100030000C9448000C9448000C9448000C94480020
:100040000C9448000C9448000C9448000C94480010
:100050000C9448000C9448000C9448000C94480000
:100060000C9448000C9448000C9448000C944800F0
:100070000C9448000C9448000C94480011241FBEB6
:10008000CFEFD4E0DEBFCDBF0E94E2000C94EB00C6
:100090000C9400008BB92E9841982D9A82E08A9595
:1000A000F1F700C02D9885E88A95F1F700000895D2
:1000B0008BB92E98419A2D9A82E08A95F1F700C06B
:1000C0002D9885E88A95F1F7000008958FEF84B99F
:1000D00015B88AB91BB88FE097E20197F1F700C015
:1000E000000088E30E944A008CE00E944A0081E000
:1000F0000E944A008FE097E20197F1F700C00000EC
:1001000086E00C944A00CF93DF9300D000D0CDB7A7
:10011000DEB790E8998390EC9A8394E99B8394ED01
:100120009C836150FE01E80FF11D8081860F0E94C3
:100130004A008FE097E20197F1F700C000000F90AE
:100140000F900F900F90DF91CF9108951F93CF9351
:10015000DF93EC0103C00E9458001F5FFE01E10F16
:10016000F11D80818111F7CFDF91CF911F9108950B
:1001700088E00E944A002FE38DE093E02150804008
:100180009040E1F700C000008CE00E944A002FE39D
:100190008DE093E0215080409040E1F700C00000E6
:1001A0000895811102C088E101C08CE10E944A00DB
:1001B0002FE78AE196E0215080409040E1F700C0AF
:1001C000000008950E946600C0E00E94B800CF5F62
:0A01D000C230D8F3F9CFF894FFCF46
:00000001FF
