:1000000012C221C220C21FC21EC21DC21CC21BC2FC
:100010001AC219C218C217C216C215C214C213C21C
:1000200012C211C210C2FFFFFFFFFFFF7F7F7F7F61
:100030007F7F7F7FFFFFFFFF7F7F3FBF3F1F3F3FF0
:100040003F7FFFBF1F478707070727777767E7E7E8
:10005000E7C7870707070707070707070787C7F7E0
:10006000FFFFFFFFFFFFFFFFFFFFFFEFEF7F7F7F40
:100070007FFFFFFFFFFFFFFFFFBFFFFFFFFF3F7F90
:100080007F7F3F3F3F1F1F1F1F1F0F1F1F1F3F3F30
:100090003F3F3F7F7F7F7F3F3F7F7F7F7F7F7FFF30
:1000A000FFFF7F7FFFFFFEFEFEFFFFFFF8F8F0F08F
:1000B000F8F8F8F8F8F8F0E0C08000000000000060
:1000C00000000000000C0C0E1C3F0F03000404870E
:1000D000CF9FFFFEFCF8F8FCFEFEFFFFFFFFFFFDD9
:1000E000FFFFFFDFCF1F3F3F130301101C0C000079
:1000F0000000000000000080800000000000000000
:1001000000000000000000000000000000000000EF
:100110000000000000000090F8F8F8F8F8CCE0F0DB
:10012000F8F8F8FCFCFEFFFFFFFFFFFFFFFFFFFFFB
:10013000FFFFFFFFFFFFFFFFFFFFF8F0E0E0C080E1
:1001400000000080C0C0E0E0C0E0F0FCFEFEFFFF69
:10015000FFFFFFFFFFFFFFFFFFFFFFFFFFFFFFFFAF
:10016000FF3F1F090100040606060E1C1E181C187E
:10017000191901030000000746000080808000007C
:10018000000000000000000000000000000000006F
:1001900084FCF8F4FEFEF7FBFEFFFFFFFFFFFFFF0E
:1001A000FFFFFFFFFFFFFFFFFFFFFFFFFFFFFFFF5F
:1001B000FFFFFFFFFFFFFFFFFFFFFFFFFFFFFFFF4F
:1001C000FFFCFCFCFDF9F9F3FFFF5F0F0F0F0F0FB2
:1001D0001F3F3F3FFFFFFFFFFFFFFFFFFFFFFFFF4F
:1001E000F0E0C0C0C0C0C0C0C000000000000000FF
:1001F00000000003060088C8FCFCFEFFFFFFFFFEB6
:10020000F0E0F8FCFEFFFEFCF83030E0F67F3F3F08
:10021000FFFFFFFFFFFFFFFFFFFFFFFFFFFFFFFFEE
:10022000FFFFFFFFFFFFFFFFFFFFFFFFFFFFFFFFDE
:10023000FFFFFFFFFFFFFFFFFFFFFFFFFFFFFFFFCE
:10024000FFFFFFFFFFFFFFFFFFFDF0E0C00000002A
:100250000000000000000101F1FBFFFFFFFFFFFFB6
:10026000FFFFFFFFFFFFFFFFFFFE98000000000001
:10027000000080C0FE7F1FDFFFFFFFFFFFFFFFFFCB
:10028000FFFFFFFFFFFFFFFFFFFEFCFFFFFEFE7F04
:100290007E3F1F1F0F0F3D39193B7FFFFFFFFFFF01
:1002A000FFFFFFFFFFFFFFFFFFFFFFFFFFFFFFFF5E
:1002B000FFFFFFFFFFFFFFFFFFFFFFFFFFFFFFFF4E
:1002C000FFFFFFFFFFFFFFFFFFFFFFFF0F000080AB
:1002D000C0E0F0F8FCFEFFFFFFFFFFFFFFFFFFFFA6
:1002E000FFFFFFFFFFFFFFFFFFFFFFFCF0F0F0F05D
:1002F000F8FCFFFFFFFFFEFFFFFFFFFFFFFFFFFF19
:10030000FFFFFFFFFFFFFFFFFFFFFFFFFFFFFCF00F
:10031000F0F0F8F8F8F0F0E0C0C0E0F0FFFFFFFF09
:10032000FFFF7FFFDFFFFFFFFFFFFFFFFFFFFFFF7D
:10033000FFFFFFFFFFFFFFFFFFFFFFFFFFFFFFFFCD
:10034000FFFFFFFFFFFFFFFFFFFFFFFFF8F8FFFFCB
:10035000FFFFFFFFFFFFFFFFFFFFFFFFFFFFFFFFAD
:10036000FFFFFFFFFFFFFFFFFFFFFFFFFFFFFFFF9D
:10037000FFFFFFFFFFFFFF7F7F7FFFFFFFFFFFFF0D
:10038000FFFFFFFF7F7F7F7F7F7F7F7F7F7F7F7F7D
:100390007F7F7F7F7F7F7F7F7FFFFFFFFFFFFFFFED
:1003A000FFFFFFFFFFFF070707070707070707070D
:1003B00007070707030303030303030303030303FD
:1003C000030303010303030303030301010000000C
:1003D00007070707070707070707070707070703B1
:1003E00003010101010101010101010101010101FB
:1003F00001000000000000000000000000000101FA
:1004000000000000000000000000000000000000EC
:1004100000000000000000000000000000000001DB
:1004200005050707070711241FBECFE5D4E0DEBF8F
:10043000CDBF10E0A0E6B0E001C01D92A936B10723
:10044000E1F702D0E3C6DCCD0F93DF93CF9300D06A
:10045000CDB7DEB71A82198205C089819A810196CB
:100460009A83898389819A8188599A43B0F380E07D
:100470005CD480E060E04FE72FE300E0CAD386E27F
:1004800090E076D6FFCFFC018491089590936800A8
:1004900080936700709366006093650040936100ED
:1004A00008950F931F93082F809167009091680023
:1004B000E0916500F091660004960995182F8091EF
:1004C000670090916800E0916500F09166000596E4
:1004D0000995482F0117D8F0202F30E0812F90E0A8
:1004E000840F911D2817390794F4011B202F30E049
:1004F0002A5F3F4F8091670090916800E09165000E
:10050000F0916600820F931F09958F5F01C080E014
:100510001F910F9108950F931F93CF93DF938C0139
:10052000C0E0D0E005C00F5F1F4FBBDFC80FD11D7B
:10053000F80180818823B9F7CE01DF91CF911F9117
:100540000F9108950F931F93CF93DF93EC0100E079
:1005500010E006C02196F9018491A3DF080F111D58
:100560009E01FE0184918823A9F7C801DF91CF91F4
:100570001F910F910895DF93CF930F92CDB7DEB700
:10058000982F662319F4AC98AB9A04C0613011F42B
:10059000AB98AC9AA898A9988FEF81BB92BBAA9A06
:1005A000000000000000AA98198203C089818F5FB3
:1005B000898389818830D0F312BA0F90CF91DF916F
:1005C00008951F9387FD80E0603408F060E0809319
:1005D000620060936300669566956695609364001B
:1005E000803410F460E002C0805461E08064C3DFB6
:1005F00010916400186B812F60E0BDDF812F61E0F6
:10060000BADF1F9108951F93DF93CF930F92CDB759
:10061000DEB712BA11BA90916200903418F4AC9817
:10062000AB9A02C0AB98AC9A903429F4882319F0A5
:1006300080E461E0A0DFA89AA99AAA9A00000000CD
:10064000000010B3AA98198203C089818F5F898343
:1006500089818830D0F38FEF81BB809162006091F7
:100660006300AFDF8091600081111095812F0F90A2
:10067000CF91DF911F910895DF92EF92FF920F9338
:100680001F93DF93CF930F92CDB7DEB7F82E8091F3
:10069000620087FD84C0803418F4AC98AB9A02C025
:1006A000AB98AC9A803411F461E065DFA89AA99800
:1006B0000FEF01BB10916300177009F458C0D5B259
:1006C00081E0A1DF80E09FDFD5BA01BBEF2CFF24E2
:1006D000012F10E09701002E02C0220F331F0A9451
:1006E000E2F7982F922B809160008111909592BB38
:1006F000AA9A000000000000AA98198203C089810C
:100700008F5F898389818830D0F360916300685F4F
:100710008091620056DF81E076DF80E074DFD5BA39
:100720009FEF91BB28E030E0201B310B02C0F59415
:10073000E7942A95E2F7282F2E29809160008111F5
:10074000209522BBAA9A000000000000AA981982F6
:1007500003C089818F5F898389818830D0F380913C
:1007600062006091630068508F5F2BDF17C080913B
:1007700060008111F094F2BAAA9A00000000000013
:10078000AA98198203C089818F5F89838981883003
:10079000D0F3809162008F5F8093620012BA0F9055
:1007A000CF91DF911F910F91FF90EF90DF9008950F
:1007B0002F923F924F925F926F927F928F929F9271
:1007C000AF92BF92CF92DF92EF92FF920F931F935F
:1007D000DF93CF9300D000D000D0CDB7DEB7082F85
:1007E0008091670090916800E0916500F09166004B
:1007F00003960995C82E282F27702A8380916700B9
:1008000090916800E0916500F0916600049609956A
:10081000182F8091670090916800E0916500F09139
:10082000660005960995D82E3090620030916300DD
:100830003983011708F4C1C0202F30E0812F90E0E8
:100840008D0D911D281739070CF0B7C0B02EB11AC5
:10085000EE24FF2400E056E0852E912C0AC0C90149
:10086000880D991D0995E80EF11C0F5F0894811CF5
:10087000911C2091670030916800E0916500F09133
:1008800066000B1560F38C2D90E0079643E095957C
:1008900087954A95E1F7282E082F10E0E09EC001C9
:1008A000E19E900DF09E900D1124CD2CDD2446E0AC
:1008B00050E0C40ED51EC80ED91E8B2D90E00696B2
:1008C000820F931F0995E82E682E6194AA24BB24F9
:1008D00077241C830B8366C02601460C511C8601BD
:1008E000070D111D1E821D8245010894811C911C5B
:1008F00038C08091670090916800E0916500F091A8
:100900006600800F911F0995F82E8B819C818816B7
:100910009906B9F42D813E81240D351D8091670023
:1009200090916800E0916500F0916600820F931F3E
:10093000099590E00A8002C0959587950A94E2F7A0
:10094000F82A809161008F3F11F48F2D02C08F2D06
:10095000809592DEED81FE813196FE83ED830F5FFF
:100960001F4FFD81FE1528F2809161008F3F11F429
:1009700080E001C08FEF80DEC50102962B813C81B3
:100980008217930724F460916300685F04C060914C
:1009900063003A81630F832D14DE0894A11CB11CFF
:1009A0006E0C7E0CA21408F497CF3394832D8E0D19
:1009B000698107DE20E030E002C021E030E0C901BB
:1009C00026960FB6F894DEBF0FBECDBFCF91DF9154
:1009D0001F910F91FF90EF90DF90CF90BF90AF905D
:1009E0009F908F907F906F905F904F903F902F904F
:1009F00008950F931F93CF93DF93EC010091620052
:100A000015C08A3089F4109163008091670090913D
:100A10006800E0916500F091660003960995180F53
:100A2000802F612FCEDD01C0C3DE2196FE018491AF
:100A3000882339F7DF91CF911F910F9108950F937C
:100A40001F93CF93DF93EC010091620015C08A30B1
:100A500089F4109163008091670090916800E091A3
:100A60006500F091660003960995180F802F612F9D
:100A7000A8DD01C09DDE21968881882341F7DF91A2
:100A8000CF911F910F9108950F931F93162F042F4D
:100A9000687F97DD81E0B7DD80E0B5DD482F212F4D
:100AA00030E00F3F59F42770307081E090E002C0D1
:100AB000880F991F2A95E2F7842B0BC0277030709E
:100AC00081E090E002C0880F991F2A95E2F7809597
:100AD0008423D2DD1F910F910895AF92BF92CF92E0
:100AE000DF92EF92FF920F931F93CF93DF93B82E75
:100AF000A42EE22EE394462F4770F62EF41ACE2D44
:100B0000D0E0642F70E028E030E0C901861B970B2D
:100B1000C817D9075CF42C1B3D0B8FEF90E002C087
:100B2000959587952A95E2F70E2D03C008E0041BE2
:100B30008FEF90E002C0880F991F6A95E2F7D82ED8
:100B40008B2D6F2D3EDD10E0CD2CC09481E05BDD60
:100B500080E059DD982F8C2D892390959D21892B3C
:100B60008BDD1F5FA11690F710C088E0F80E8B2D6B
:100B70006F2D27DD10E081E046DD80E044DD8095CB
:100B80007BDD1F5FA116B8F7085F202F30E0C90199
:100B900007968C179D074CF30E1508F5C21BD30B57
:100BA0008FEF90E002C0880F991FCA95E2F7082FD7
:100BB000009588E0F80E8B2D6F2D03DD10E0F02EF0
:100BC000F09481E020DD80E01EDD982F8F2D8923B9
:100BD00090959023892B50DD1F5FA11690F7DF9130
:100BE000CF911F910F91FF90EF90DF90CF90BF902A
:100BF000AF9008951F93182F80916000811739F0EE
:100C000080E060E04FE72FE368DF109360001F9102
:100C100008959F92AF92BF92CF92DF92EF92FF9290
:100C20000F931F93CF93DF93B82E942EE22EA02E16
:100C3000E394462F4770F62EF41ACE2DD0E0642FA1
:100C400070E028E030E0C901861B970BC817D90770
:100C50005CF42C1B3D0B8FEF90E002C095958795BF
:100C60002A95E2F70E2D03C008E0041B8FEF90E0F9
:100C700002C0880F991F6A95E2F7D82E8B2D6F2D31
:100C8000A0DC10E0CD2CC09481E0BDDC80E0BBDCBA
:100C90009FEFA91611F48D2901C08C21EDDC1F5F97
:100CA000911690F70CC088E0F80E8B2D6F2D89DC23
:100CB00010E08A2DE1DC1F5F9116D8F7085F202F26
:100CC00030E0C90107968C179D076CF30E1508F5E7
:100CD000C21BD30B8FEF90E002C0880F991FCA95FB
:100CE000E2F7E82EE09498E0F90E8B2D6F2D69DC89
:100CF00010E0FE2CF09481E086DC80E084DC9FEF45
:100D0000A91611F48E2901C08F21B6DC1F5F911640
:100D100090F7DF91CF911F910F91FF90EF90DF90AF
:100D2000CF90BF90AF909F9008950F931092620064
:100D30001092630010926400809360008FEF84BB78
:100D40008FE360E018DC8FE361E015DC80EC60E0AD
:100D500012DC80EC61E00FDC80E060E04FE72FE325
:100D600000E057DF80E060E02CDC0F9108952F92C7
:100D70003F924F925F926F927F928F929F92AF922B
:100D8000BF92CF92DF92EF92FF920F931F93DF9368
:100D9000CF93CDB7DEB72C970FB6F894DEBF0FBE5A
:100DA000CDBF8F83688749872A87C02EDD24C6017F
:100DB000880F991F22273327281B390B3E832D8349
:100DC0002D5F3F4F3C872B873F80300E262E200E15
:100DD000342F8F81380F3B83301B3C839A85960FCD
:100DE0009983901B9A83432C522C632E792EAA242C
:100DF000BB24882499241C2D022D0C19842D602FCE
:100E00004E2D42DEF32CFC188F2D652D4E2D3CDE31
:100E1000862D602F4E2D38DE0C810C0D802F652D18
:100E20004E2D32DEFA811F0F862D612F4E2D2CDEC6
:100E3000802F672D4E2D28DE842D612F4E2D24DE30
:100E40008F2D672D4E2D20DE2B853C8537FF07C06B
:100E50002A5F3F4F280D391D3C872B8715C08B8596
:100E60009C850A969C878B87C5018C199D09880FE4
:100E7000991F880F991FEB85FC85E80FF91FFC87E8
:100E8000EB870894C108D1080894A11CB11C4A94AE
:100E90005A946394739424E030E0820E931ECA1433
:100EA000DB040CF0A8CF1D81F984F10E832D688539
:100EB0004F2D20E00E2DADDE832D69814F2D20E0DA
:100EC000A8DE3A85130F8F81622D40E0212FA1DE2D
:100ED0008B81622D40E0212F9CDE2C960FB6F8947A
:100EE000DEBF0FBECDBFCF91DF911F910F91FF905D
:100EF000EF90DF90CF90BF90AF909F908F907F90BA
:100F00006F905F904F903F902F900895CF92DF9217
:100F1000EF92FF920F931F93182FF62ED42EC22E0E
:100F200020E077DE6C2D6F0D812F4D2D20E071DEDE
:100F3000812F6F2D40E02C2D6CDE8D2D810F6F2DBC
:100F400040E02C2D66DE1F910F91FF90EF90DF9017
:100F5000CF9008954F925F926F927F928F929F925F
:100F6000AF92BF92CF92DF92EF92FF920F931F93B7
:100F7000CF93DF93D82EC62EF42EE22E502E841758
:100F800051F4261710F4E62EC22EEC188D2D6C2D80
:100F900040E02E2D0BC0621761F4481710F4FD2CB1
:100FA000D42EFD188D2D6C2D4F2D20E0052D31DE1A
:100FB000CEC0622F70E04C2D50E02F2D30E0281B6A
:100FC0003109CB01841B950B8217930734F4461B20
:100FD000570B421753070CF45EC0FD1430F48F2DED
:100FE000FD2CD82E8E2DEC2CC82E4F2C4D18EE2D0E
:100FF000F0E02C2D30E04F01821A930AA42CBB2480
:1010000088EC90E0AC01849EC001859E900D949E7A
:10101000900D1124B501D3D0EB010C2DFF24390123
:101020006E1A7F0A8F2D90E08C9F90018D9F300D5E
:101030009C9F300D1124C90168EC70E0C0D0162FC0
:101040001C0DC90168EC70E0BAD08436910514F02B
:101050001F5F05C05FEF8D3995070CF411504F2DC0
:101060004D0D842F602F212F052D74DF8A149B04D2
:101070002CF0CE1418F4012F0F5F09C06A147B0402
:101080002CF0EC1418F4012F015001C0012FF3943F
:101090004F1440F65CC0EC1428F48F2DFD2CD82E94
:1010A000EC2CC62E4E2C4C18EF2DF0E02D2D30E000
:1010B0004F01821A930AA42CBB2488EC90E0AC0167
:1010C000849EC001859E900D949E900D1124B501C3
:1010D00076D0EB014D2DEE2439016E1A7F0A8E2D4C
:1010E00090E08C9F90018D9F300D9C9F300D1124BE
:1010F000C90168EC70E063D0162F1D0DC90168ECC2
:1011000070E05DD08436910514F01F5F05C05FEF7D
:101110008D3995070CF411502E2D2C0D842F622F34
:10112000412F052D17DF8A149B042CF0DF1418F4CF
:10113000412F4F5F09C06A147B042CF0FD1418F492
:10114000412F415001C0412FE3944E1440F6DF91EE
:10115000CF911F910F91FF90EF90DF90CF90BF90B4
:10116000AF909F908F907F906F905F904F90089579
:10117000EF92FF920F931F93CF93DF938C01FF2485
:1011800014C0F801EC0FFD1FE4908C2F6F2D19DABD
:101190008E2D72DA2196C038D10599F700581F4F6D
:1011A00088E0F80E80E4F81619F0C0E0D0E0E9CF4E
:1011B000DF91CF911F910F91FF90EF90089597FBD2
:1011C000092E07260AD077FD04D00CD006D00020C7
:1011D0001AF4709561957F4F0895F6F79095819573
:1011E0009F4F0895AA1BBB1B51E107C0AA1FBB1F3D
:1011F000A617B70710F0A61BB70B881F991F5A95A3
:10120000A9F780959095BC01CD010895F894FFCF82
:00000001FF
