:100000000C942C010C9449010C9449010C94490165
:100010000C9449010C9449010C9449010C94490138
:100020000C9449010C9449010C9449010C94490128
:100030000C9449010C9449010C9449010C94490118
:100040000C9449010C9449010C9449010C94490108
:100050000C944B030C9449010C9449010C944901F4
:100060000C9449010C9449010C9449010C944901E8
:100070000C9449010C9449010C94490100000000C2
:100080000000005F00000003000300143E143E1453
:10009000242A7F2A124333086661364955225000CC
:1000A00005030000001C2241000041221C0014082E
:1000B0003E081408083E08080050300000080808F0
:1000C0000808006060000020100804023E51494505
:1000D0003E0004027F0042615149462241494936AF
:1000E0001814127F1027454545393E4949493201C8
:1000F000017109073649494936264949493E0036C2
:100100003600000056360000081422410014141472
:100110001414004122140802015109063E415955A8
:100120005E7E0909097E7F494949363E41414122A7
:100130007F4141413E7F494949417F090909013ECB
:100140004141493A7F0808087F00417F4100304023
:1001500040403F7F081422417F404040407F020CD6
:10016000027F7F0204087F3E4141413E7F09090929
:10017000061E2121215E7F09090976264949493257
:1001800001017F01013F4040403F1F2040201F7F71
:100190002010207F41221C2241070870080761516E
:1001A000494543007F41000002040810200000413F
:1001B0007F0004020102044040404040000102046C
:1001C0000020545454787F444444383844444444D0
:1001D000384444447F385454541804047E050508B8
:1001E0005454543C7F0804047800447D400020406F
:1001F000443D007F1028440000417F40007C04788B
:1002000004787C0804047838444444387C1414147A
:1002100008081414147C007C080404485454542026
:1002200004043F44443C4040207C1C2040201C3CB3
:100230004030403C44281028440C5050503C44640A
:10024000544C44000836414100007F0000414136D3
:10025000080002010204020011241FBECFEFD4E007
:10026000DEBFCDBF11E0A0E0B1E0E4EFFAE002C0F4
:1002700005900D92A23CB107D9F711E0A2ECB1E0D4
:1002800001C01D92A63DB107E1F70E94EF030C9457
:1002900078050C9400005E989FEF94B9882319F0BC
:1002A0005A9A5B9802C05B9A5A98662311F05F9A3B
:1002B00001C05F9845B980E000008F5F8A30E0F3AD
:1002C0008093C2015D9A80E000008F5F8430E0F38C
:1002D0008093C2015D98089514B85E9A882319F03E
:1002E0005A9A5B9802C05B9A5A98662311F05F9AFB
:1002F00001C05F9880E000008F5F8A30E0F3809358
:10030000C2015D9A80E000008F5F8430E0F380934B
:10031000C20183B15D9808950E940E032FE38DE022
:1003200093E0215080409040E1F700C0000086E556
:1003300091E00C94B8030C944B01CF93C091000151
:10034000CF3FC9F04091C3014F73406460E08C2FF0
:100350000E944B014091C4014770486B60E08C2FB4
:100360000E944B014091C50161E08C2F0E944B011E
:100370008FEF80930001CF9108950F931F93CF9338
:10038000DF931F92CDB7DEB7182F062F80910001A3
:10039000811308C08091C401861304C08091C301F9
:1003A000841709F149830E949D010093C40149818A
:1003B0004093C301109300014F73406460E0812FAC
:1003C0000E944B01402F4770486B60E0812F0E94D4
:1003D0004B0161E0812F0E946C0161E0812F0E943E
:1003E0006C018093C5010F90DF91CF911F910F9108
:1003F0000895CF93DF93C0E040E460E080E00E9486
:100400004B014C2F486B60E080E00E944B01D0E430
:1004100040E061E080E00E944B01D150C9F7CF5F1E
:10042000C83051F7C0E040E460E081E00E944B0139
:100430004C2F486B60E081E00E944B01D0E440E02B
:1004400061E081E00E944B01D150C9F7CF5FC83015
:1004500051F78FEF80930001DF91CF9108950E94B3
:100460000E032FE986E891E0215080409040E1F7AB
:1004700000C0000080E791E00E94B80314B88AB180
:100480008C6E8AB98BB18F718BB98BB18C608BB943
:100490002FE986E891E0215080409040E1F700C0CC
:1004A00000008AE891E00E94B80383EA91E00E948C
:1004B000B80382EB91E00E94B8034FE360E080E074
:1004C0000E944B014FE360E081E00E944B0140EC51
:1004D00060E080E00E944B0140EC60E081E00E941F
:1004E0004B010C94F901CF93DF93D42FC62FC77023
:1004F000482F4F736F7370E093E0759567959A95E9
:10050000E1F786FB882780F90E94BD012091C50193
:1005100081E090E00C2E01C0880F0A94EAF7DD23F9
:1005200011F0822B02C0809582238093C501DF9158
:10053000CF910895962F990F960F990F9093C6011A
:10054000880F880F880F8093C7010895AF92BF92DC
:10055000CF92DF92EF92FF920F931F93CF93DF938F
:10056000803218F0813818F403C080E201C080E8BE
:1005700095E0899F700111248CED9FEFE80EF91E24
:1005800000E010E0CC24C394D12CB02EF701E00F92
:10059000F11FA490C0E0D0E08C2F95E0B91679F05F
:1005A000C73069F0A6010C2E01C0440F0A94EAF787
:1005B0004A216091C7016C0F8091C60106C060910D
:1005C000C701680F8091C60140E08B0D0E94730245
:1005D0002196C830D10501F70F5F1F4F0630110576
:1005E000A1F68091C6018A5F8093C601DF91CF9109
:1005F0001F910F91FF90EF90DF90CF90BF90AF9041
:100600000C949D01CF93DF93EC0102C00E94A602DF
:1006100089918111FBCFDF91CF91089588EC90E013
:100620000E9426049C019093D1018093D0018853AD
:100630009F4F9093C9018093C8013093CD012093BF
:10064000CC013093CB012093CA011092CF011092BC
:10065000CE0178945498539A8DE08093C80080E23C
:100660008093CC008CE090E09093CE008093CD00FE
:10067000EAECF0E080818260808308951092CF01DF
:100680001092CE0181E08093C8008091D0019091BA
:10069000D1010C94C1041F920F920FB60F92112436
:1006A0008F939F93EF93FF93E091CC01F091CD0155
:1006B0008091CA019091CB01E817F907B9F08191B7
:1006C0008093D200F093CD01E093CC018091C801DA
:1006D0009091C901E817F90791F48091D0019091A8
:1006E000D1019093CD018093CC0109C01092CF012C
:1006F0001092CE018091C90082608093C900FF9161
:10070000EF919F918F910F900FBE0F901F901895B2
:100710008091CE019091CF01019739F1E091CC0108
:10072000F091CD018091CA019091CB01E817F907B2
:10073000E1F081E090E09093CF018093CE01819130
:100740008093D200F093CD01E093CC018091C80159
:100750009091C901E817F90741F48091D001909177
:10076000D1019093CD018093CC0180E090E0089579
:10077000CF93DF93FC0101900020E9F73197E81B4C
:10078000F90B9C01DC011EC0C091CA01D091CB01C4
:100790008D9188838091CA019091CB0101969093AD
:1007A000CB018093CA014091C8015091C9018417BF
:1007B000950741F48091D0019091D1019093CB01A4
:1007C0008093CA01CD01821B930B8E179F07E4F221
:1007D0000E94880380E090E0DF91CF9108950E940D
:1007E0000E033D9A2FE986E891E021508040904029
:1007F000E1F700C0000087E091E00E94B8030E948A
:100800002F0287E191E00E94B8036BE080E00E9434
:100810009A0288E291E00E9402036BE082E00E946B
:100820009A0283E391E00E9402036BE083E00E945E
:100830009A0289E391E00E9402030E949D018FE3E6
:1008400091E00E94B80380E090E008950F931F9319
:10085000CF93DF938230910510F482E090E0E09135
:10086000D401F091D50120E030E0C0E0D0E023C019
:100870004081518148175907A8F04817590761F47A
:1008800082819381209719F09B838A832EC0909355
:10089000D5018093D40129C02115310529F04217D3
:1008A000530710F0A90102C0BE01DF0102811381CC
:1008B000EF019A01F8013097D9F62115310509F1B8
:1008C000281B390B2430310590F412968D919C91A0
:1008D00013976115710521F0FB019383828304C096
:1008E0009093D5018093D401FD01329644C0FD015F
:1008F000E20FF31F81939193225031092D933C9382
:100900003AC02091D2013091D301232B41F42091A0
:100910000301309104013093D3012093D20120913F
:100920000101309102012115310541F42DB73EB787
:100930004091050150910601241B350BE091D20135
:10094000F091D301E217F307A0F42E1B3F0B2817F9
:10095000390778F0AC014E5F5F4F2417350748F038
:100960004E0F5F1F5093D3014093D2018193919317
:1009700002C0E0E0F0E0CF01DF91CF911F910F9135
:100980000895EF92FF920F931F93CF93DF930097F9
:1009900009F48EC0DC01129713961C921E921297D6
:1009A000E090D401F090D501E114F10489F42D9187
:1009B0003C911197280F391F8091D2019091D3015A
:1009C0008217930789F5B093D301A093D20170C029
:1009D000E70120E030E001C0EA01CA17DB0738F484
:1009E0004A815B819E0141155105B1F722C0AC01DE
:1009F00042505109FA01D383C28300811181BC01A5
:100A0000600F711F6C177D0761F468817981600F39
:100A1000711F6E5F7F4F718360836A817B817383F7
:100A200062832115310529F4B093D501A093D40137
:100A30003FC0F901B383A283E90149915991C40FE1
:100A4000D51FAC17BD0771F4DC019E918E91840F08
:100A5000951F02969183808312968D919C91139796
:100A600093838283A0E0B0E002C0D7017C01F7014C
:100A7000828193810097C9F7C70102962081318155
:100A8000820F931F2091D2013091D301281739078B
:100A900079F4109729F41092D5011092D40104C072
:100AA00013961C921E921297F092D301E092D201FB
:100AB000CDB7DEB7E6E00C9469052A883988488806
:100AC0005F846E847D848C849B84AA84B984C8846A
:100AD000DF80EE80FD800C811B81AA81B981CE0F61
:100AE000D11D0FB6F894DEBF0FBECDBFED01089546
:040AF000F894FFCFA8
:100AF400FF0000D6012000696E206D61696E2C2014
:100B0400504335206F6E004C434420696E6974690C
:100B1400616C697A65640A00313238783634206C45
:100B240063640068656C6C6F00776F726C64006658
:100B3400696E69736865642077726974696E672089
:100B4400737475666600696E73696465204C43440A
:100B54005F776169742066756E6374696F6E0A00ED
:100B6400496E73696465204C43445F696E697420FF
:100B740066756E6374696F6E0A005374617274698A
:100B84006E6720776169742066756E6374696F6E31
:100B9400730A00576169742043533120646F6E6592
:100BA4000A00576169742043533220646F6E650AEA
:020BB40000003F
:00000001FF
