S01200006275696C642F6D61696E2E737265632E
S11300000C942C010C9449010C9449010C94490161
S11300100C9449010C9449010C9449010C94490134
S11300200C9449010C9449010C9449010C94490124
S11300300C9449010C9449010C9449010C94490114
S11300400C9449010C9449010C9449010C94490104
S11300500C9449010C9449010C9449010C944901F4
S11300600C9449010C9449010C9449010C944901E4
S11300700C9449010C9449010C94490100000000BE
S11300800000005F00000003000300143E143E144F
S1130090242A7F2A124333086661364955225000C8
S11300A005030000001C2241000041221C0014082A
S11300B03E081408083E08080050300000080808EC
S11300C00808006060000020100804023E51494501
S11300D03E0004027F0042615149462241494936AB
S11300E01814127F1027454545393E4949493201C4
S11300F0017109073649494936264949493E0036BE
S1130100360000005636000008142241001414146E
S11301101414004122140802015109063E415955A4
S11301205E7E0909097E7F494949363E41414122A3
S11301307F4141413E7F494949417F090909013EC7
S11301404141493A7F0808087F00417F410030401F
S113015040403F7F081422417F404040407F020CD2
S1130160027F7F0204087F3E4141413E7F09090925
S1130170061E2121215E7F09090976264949493253
S113018001017F01013F4040403F1F2040201F7F6D
S11301902010207F41221C2241070870080761516A
S11301A0494543007F41000002040810200000413B
S11301B07F00040201020440404040400001020468
S11301C00020545454787F444444383844444444CC
S11301D0384444447F385454541804047E050508B4
S11301E05454543C7F0804047800447D400020406B
S11301F0443D007F1028440000417F40007C047887
S113020004787C0804047838444444387C14141476
S113021008081414147C007C080404485454542022
S113022004043F44443C4040207C1C2040201C3CAF
S11302304030403C44281028440C5050503C446406
S1130240544C44000836414100007F0000414136CF
S1130250080002010204020011241FBECFEFD4E003
S1130260DEBFCDBF11E0A0E0B1E0E4E2F6E002C001
S113027005900D92A831B107D9F711E0A8E1B1E0DA
S113028001C01D92AE31B107E1F70E94F1020C9456
S113029010030C9400005E989FEF94B9882319F022
S11302A05A9A5B9802C05B9A5A98662311F05F9A37
S11302B001C05F9845B980E000008F5F8A30E0F3A9
S11302C0809318015D9A80E000008F5F8430E0F332
S11302D0809318015D98089514B85E9A882319F0E4
S11302E05A9A5B9802C05B9A5A98662311F05F9AF7
S11302F001C05F9880E000008F5F8A30E0F3809354
S113030018015D9A80E000008F5F8430E0F38093F1
S1130310180183B15D980895CF93C82F60E08C2FA6
S11303200E946C018079D1F7CF910895CF93C82FA3
S11303300E944B018C2FCF910C948C01CF93C091D0
S11303400001CF3FC9F0409119014F73406460E050
S11303508C2F0E94960140911A014770486B60E00F
S11303608C2F0E94960140911B0161E08C2F0E940A
S113037096018FEF80930001CF9108950F931F93FF
S1130380CF93DF931F92CDB7DEB7182F062F80913E
S11303900001811308C080911A01861304C0809162
S11303A01901841709F149830E949E0100931A01DF
S11303B0498140931901109300014F73406460E038
S11303C0812F0E949601402F4770486B60E0812F77
S11303D00E94960161E0812F0E946C0161E0812FEF
S11303E00E946C0180931B010F90DF91CF911F91AC
S11303F00F910895CF93DF93C0E040E460E080E084
S11304000E9496014C2F486B60E080E00E949601A8
S1130410D0E440E061E080E00E949601D150C9F749
S1130420CF5FC83051F7C0E040E460E081E00E9453
S113043096014C2F486B60E081E00E949601D0E465
S113044040E061E081E00E949601D150C9F7CF5F9E
S1130450C83051F78FEF80930001DF91CF91089559
S113046014B88AB18C6E8AB98BB18F718BB98BB188
S11304708C608BB980E00E948C0181E00E948C0129
S11304804FE360E080E00E9496014FE360E081E08A
S11304900E94960140EC60E080E00E94960140ECEE
S11304A060E081E00E9496010C94FA01CF93DF93FF
S11304B0D42FC62FC770482F4F736F7370E093E02B
S11304C0759567959A95E1F786FB882780F90E94D0
S11304D0BE0120911B0181E090E00C2E01C0880F29
S11304E00A94EAF7DD2311F0822B02C0809582235F
S11304F080931B01DF91CF910895962F990F960F4A
S1130500990F90931C01880F880F880F80931D0109
S11305100895AF92BF92CF92DF92EF92FF920F9322
S11305201F93CF93DF93803218F0813818F403C0FF
S113053080E201C080E895E0899F700111248CED70
S11305409FEFE80EF91E00E010E0CC24C394D12CF8
S1130550B02EF701E00FF11FA490C0E0D0E08C2F83
S113056095E0B91679F0C73069F0A6010C2E01C0E8
S1130570440F0A94EAF74A2160911D016C0F80919F
S11305801C0106C060911D01680F80911C0140E0B0
S11305908B0D0E9456022196C830D10501F70F5FDA
S11305A01F4F06301105A1F680911C018A5F8093CC
S11305B01C01DF91CF911F910F91FF90EF90DF907D
S11305C0CF90BF90AF900C949E01CF93DF93EC013A
S11305D002C00E94890289918111FBCFDF91CF91E2
S11305E008950E9430026BE080E00E947D0281E069
S11305F091E00E94E5026BE082E00E947D028CE0C3
S113060091E00E94E5026BE083E00E947D0282E1BA
S113061091E00E94E5020E949E0180E090E008952E
S1070620F894FFCF78
S1130624FF313238783634206C63640068656C6C4E
S10B06346F00776F726C640023
S9030000FC
