:100000000C942C010C9449010C9449010C94490165
:100010000C9449010C9449010C9449010C94490138
:100020000C9449010C9449010C9449010C94490128
:100030000C9449010C9449010C9449010C94490118
:100040000C9449010C9449010C9449010C94490108
:100050000C947C030C9449010C9449010C944901C3
:100060000C9449010C9449010C9449010C944901E8
:100070000C9449010C9449010C94490100000000C2
:100080000000005F00000003000300143E143E1453
:10009000242A7F2A124333086661364955225000CC
:1000A00005030000001C2241000041221C0014082E
:1000B0003E081408083E08080050300000080808F0
:1000C0000808006060000020100804023E51494505
:1000D0003E0004027F0042615149462241494936AF
:1000E0001814127F1027454545393E4949493201C8
:1000F000017109073649494936264949493E0036C2
:100100003600000056360000081422410014141472
:100110001414004122140802015109063E415955A8
:100120005E7E0909097E7F494949363E41414122A7
:100130007F4141413E7F494949417F090909013ECB
:100140004141493A7F0808087F00417F4100304023
:1001500040403F7F081422417F404040407F020CD6
:10016000027F7F0204087F3E4141413E7F09090929
:10017000061E2121215E7F09090976264949493257
:1001800001017F01013F4040403F1F2040201F7F71
:100190002010207F41221C2241070870080761516E
:1001A000494543007F41000002040810200000413F
:1001B0007F0004020102044040404040000102046C
:1001C0000020545454787F444444383844444444D0
:1001D000384444447F385454541804047E050508B8
:1001E0005454543C7F0804047800447D400020406F
:1001F000443D007F1028440000417F40007C04788B
:1002000004787C0804047838444444387C1414147A
:1002100008081414147C007C080404485454542026
:1002200004043F44443C4040207C1C2040201C3CB3
:100230004030403C44281028440C5050503C44640A
:10024000544C44000836414100007F0000414136D3
:10025000080002010204020011241FBECFEFD4E007
:10026000DEBFCDBF11E0A0E0B1E0EEE8FBE002C0F0
:1002700005900D92AE3AB107D9F711E0AEEAB1E0C0
:1002800001C01D92A23CB107E1F70E9420040C942A
:10029000C5050C9400005E989FEF94B9882319F06F
:1002A0005A9A5B9802C05B9A5A98662311F05F9A3B
:1002B00001C05F9845B980E000008F5F8A30E0F3AD
:1002C0008093AE015D9A80E000008F5F8430E0F3A0
:1002D0008093AE015D98089514B85E9A882319F052
:1002E0005A9A5B9802C05B9A5A98662311F05F9AFB
:1002F00001C05F9880E000008F5F8A30E0F3809358
:10030000AE015D9A80E000008F5F8430E0F380935F
:10031000AE0183B15D980895CF93C82F0E943F032B
:1003200034C060E08C2F0E946C0184FF0CC02FE968
:1003300086E891E0215080409040E1F700C0000045
:100340008FE291E011C060E08C2F0E946C0187FF6A
:100350000EC02FE986E891E0215080409040E1F7FF
:1003600000C000008FE391E00E94E90301C04598BE
:100370002FE986E891E0215080409040E1F700C0ED
:1003800000008EE491E00E94E90360E08C2F0E945F
:100390006C01807931F6CF910895CF93C82F0E94D8
:1003A0004B018C2FCF910C948C01809100018F3FD9
:1003B000D1F04091AF014F73406460E00E94CD01E5
:1003C0004091B0014770486B60E0809100010E944D
:1003D000CD014091B10161E0809100010E94CD0109
:1003E0008FEF8093000108951F93CF93DF9300D088
:1003F0001F92CDB7DEB790910001981308C090917D
:10040000B001961304C09091AF01941741F14B8352
:100410006A8389830E94D5016A816093B0014B8110
:100420004093AF018981809300014F73406460E085
:100430000E94CD014091B0014770486B60E080910F
:1004400000010E94CD011091000161E0812F0E9406
:100450006C0161E0812F0E946C018093B1010F90CB
:100460000F900F90DF91CF911F910895CF93DF935D
:10047000C0E040E460E080E00E94CD014C2F486B7A
:1004800060E080E00E94CD01D0E440E061E080E0E7
:100490000E94CD01D150C9F7CF5FC83051F7C0E0FD
:1004A00040E460E081E00E94CD014C2F486B60E0A9
:1004B00081E00E94CD01D0E440E061E081E00E9453
:1004C000CD01D150C9F7CF5FC83051F78FEF80937E
:1004D0000001DF91CF9108950E943F038DE591E0E7
:1004E0000E94E90314B88AB18C6E8AB98BB18F71FE
:1004F0008BB98BB18C608BB987E791E00E94E903DF
:1005000080E00E948C0180E991E00E94E90381E093
:100510000E948C018FE991E00E94E9034FE360E0C3
:1005200080E00E94CD014FE360E081E00E94CD01B8
:1005300040EC60E080E00E94CD0140EC60E081E0B2
:100540000E94CD010C943602CF93DF93D42FC62F97
:10055000C770482F4F736F7370E093E07595679580
:100560009A95E1F786FB882780F90E94F401209193
:10057000B10181E090E00C2E01C0880F0A94EAF7E7
:10058000DD2311F0822B02C0809582238093B1017C
:10059000DF91CF910895962F990F960F990F909311
:1005A000B201880F880F880F8093B3010895AF922E
:1005B000BF92CF92DF92EF92FF920F931F93CF9350
:1005C000DF93803218F0813818F403C080E201C054
:1005D00080E895E0899F700111248CED9FEFE80E73
:1005E000F91E00E010E0CC24C394D12CB02EF7010A
:1005F000E00FF11FA490C0E0D0E08C2F95E0B91679
:1006000079F0C73069F0A6010C2E01C0440F0A949E
:10061000EAF74A216091B3016C0F8091B20106C0E4
:100620006091B301680F8091B20140E08B0D0E9490
:10063000A4022196C830D10501F70F5F1F4F063085
:100640001105A1F68091B2018A5F8093B201DF911A
:10065000CF911F910F91FF90EF90DF90CF90BF90BF
:10066000AF900C94D501CF93DF93EC0102C00E94B0
:10067000D70289918111FBCFDF91CF91089588EC4A
:1006800090E00E9473049C019093BD018093BC0193
:1006900088539F4F9093B5018093B4013093B90173
:1006A0002093B8013093B7012093B6011092BB019B
:1006B0001092BA0178945498539A8DE08093C800B0
:1006C00080E28093CC008CE090E09093CE00809309
:1006D000CD00EAECF0E08081826080830895109282
:1006E000BB011092BA0181E08093C8008091BC01E7
:1006F0009091BD010C940E051F920F920FB60F92B0
:1007000011248F939F93EF93FF93E091B801F091A1
:10071000B9018091B6019091B701E817F907B9F0D6
:1007200081918093D200F093B901E093B801809158
:10073000B4019091B501E817F90791F48091BC01DB
:100740009091BD019093B9018093B80109C01092B6
:10075000BB011092BA018091C90082608093C900E8
:10076000FF91EF919F918F910F900FBE0F901F906F
:1007700018958091BA019091BB01019739F1E091F0
:10078000B801F091B9018091B6019091B701E817D5
:10079000F907E1F081E090E09093BB018093BA010A
:1007A00081918093D200F093B901E093B8018091D8
:1007B000B4019091B501E817F90741F48091BC01AB
:1007C0009091BD019093B9018093B80180E090E0D1
:1007D0000895CF93DF93FC0101900020E9F7319752
:1007E000E81BF90B9C01DC011EC0C091B601D09141
:1007F000B7018D9188838091B6019091B7010196E0
:100800009093B7018093B6014091B4015091B50126
:100810008417950741F48091BC019091BD0190939C
:10082000B7018093B601CD01821B930B8E179F07F2
:10083000E4F20E94B90380E090E0DF91CF91089547
:100840003D9A0E943F030E946C0287E091E00E9463
:10085000E9036BE080E00E94CB0288E191E00E9416
:1008600033036BE082E00E94CB0283E291E00E94BE
:1008700033036BE083E00E94CB0289E291E00E94A7
:1008800033030E94D501B12C00E010E0CB2CD12C19
:100890001EC09E012E0D3F1D2770332724303105C9
:1008A0003CF441E06C2F8A2D0E94A402459A06C0B8
:1008B00040E06C2F8A2D0E94A40245982196C034F6
:1008C000D10539F70F5F1F4F0034110539F0A02E05
:1008D000C0E0D0E07801EC0CFD1CDBCFB39488E0E5
:1008E000B812D2CFD0CF0F931F93CF93DF93823024
:1008F000910510F482E090E0E091C001F091C10117
:1009000020E030E0C0E0D0E023C0408151814817B2
:100910005907A8F04817590761F4828193812097FD
:1009200019F09B838A832EC09093C1018093C001EC
:1009300029C02115310529F04217530710F0A901EC
:1009400002C0BE01DF0102811381EF019A01F801AB
:100950003097D9F62115310509F1281B390B2430C0
:10096000310590F412968D919C9113976115710544
:1009700021F0FB019383828304C09093C101809393
:10098000C001FD01329644C0FD01E20FF31F8193C7
:100990009193225031092D933C933AC02091BE018E
:1009A0003091BF01232B41F42091030130910401C8
:1009B0003093BF012093BE012091010130910201CB
:1009C0002115310541F42DB73EB7409105015091F5
:1009D0000601241B350BE091BE01F091BF01E21727
:1009E000F307A0F42E1B3F0B2817390778F0AC0152
:1009F0004E5F5F4F2417350748F04E0F5F1F50932F
:100A0000BF014093BE018193919302C0E0E0F0E00A
:100A1000CF01DF91CF911F910F910895EF92FF9237
:100A20000F931F93CF93DF93009709F48EC0DC01DF
:100A3000129713961C921E921297E090C001F090AC
:100A4000C101E114F10489F42D913C911197280F13
:100A5000391F8091BE019091BF018217930789F5DC
:100A6000B093BF01A093BE0170C0E70120E030E069
:100A700001C0EA01CA17DB0738F44A815B819E0195
:100A800041155105B1F722C0AC0142505109FA019C
:100A9000D383C28300811181BC01600F711F6C1769
:100AA0007D0761F468817981600F711F6E5F7F4FF0
:100AB000718360836A817B81738362832115310531
:100AC00029F4B093C101A093C0013FC0F901B383E1
:100AD000A283E90149915991C40FD51FAC17BD07F5
:100AE00071F4DC019E918E91840F951F0296918383
:100AF000808312968D919C91139793838283A0E0BB
:100B0000B0E002C0D7017C01F70182819381009798
:100B1000C9F7C701029620813181820F931F20916E
:100B2000BE013091BF012817390779F4109729F4D5
:100B30001092C1011092C00104C013961C921E9223
:100B40001297F092BF01E092BE01CDB7DEB7E6E0AA
:100B50000C94B6052A88398848885F846E847D8421
:100B60008C849B84AA84B984C884DF80EE80FD8055
:100B70000C811B81AA81B981CE0FD11D0FB6F894CB
:0E0B8000DEBF0FBECDBFED010895F894FFCF8C
:100B8E00FF0000C20120004C434420696E69746965
:100B9E00616C697A65640A00313238783634206CBB
:100BAE0063640068656C6C6F00776F726C64004CE8
:100BBE00434420726573657420686967680A004C47
:100BCE004344206275737920686967680A004C4354
:100BDE0044206E6569746865723F3F0A00496E7302
:100BEE00696465204C43445F696E69742066756E56
:100BFE006374696F6E0A005374617274696E672054
:100C0E00776169742066756E6374696F6E730A001E
:100C1E00576169742043533120646F6E650A005723
:0E0C2E006169742043533220646F6E650A00C2
:00000001FF
