:100000000C942C010C9449010C9449010C94490165
:100010000C9449010C9449010C9449010C94490138
:100020000C9449010C9449010C9449010C94490128
:100030000C9449010C9449010C9449010C94490118
:100040000C9449010C9449010C9449010C94490108
:100050000C9484030C9449010C9449010C944901BB
:100060000C9449010C9449010C9449010C944901E8
:100070000C9449010C9449010C94490100000000C2
:100080000000005F00000003000300143E143E1453
:10009000242A7F2A124333086661364955225000CC
:1000A00005030000001C2241000041221C0014082E
:1000B0003E081408083E08080050300000080808F0
:1000C0000808006060000020100804023E51494505
:1000D0003E0004027F0042615149462241494936AF
:1000E0001814127F1027454545393E4949493201C8
:1000F000017109073649494936264949493E0036C2
:100100003600000056360000081422410014141472
:100110001414004122140802015109063E415955A8
:100120005E7E0909097E7F494949363E41414122A7
:100130007F4141413E7F494949417F090909013ECB
:100140004141493A7F0808087F00417F4100304023
:1001500040403F7F081422417F404040407F020CD6
:10016000027F7F0204087F3E4141413E7F09090929
:10017000061E2121215E7F09090976264949493257
:1001800001017F01013F4040403F1F2040201F7F71
:100190002010207F41221C2241070870080761516E
:1001A000494543007F41000002040810200000413F
:1001B0007F0004020102044040404040000102046C
:1001C0000020545454787F444444383844444444D0
:1001D000384444447F385454541804047E050508B8
:1001E0005454543C7F0804047800447D400020406F
:1001F000443D007F1028440000417F40007C04788B
:1002000004787C0804047838444444387C1414147A
:1002100008081414147C007C080404485454542026
:1002200004043F44443C4040207C1C2040201C3CB3
:100230004030403C44281028440C5050503C44640A
:10024000544C44000836414100007F0000414136D3
:10025000080002010204020011241FBECFEFD4E007
:10026000DEBFCDBF11E0A0E0B1E0E2EEFBE002C0F6
:1002700005900D92AC3FB107D9F712E0ACEFB1E0B9
:1002800001C01D92A031B107E1F70E9428040C942F
:10029000EF050C9400005E989FEF94B9882319F045
:1002A0005A9A5B9802C05B9A5A98662311F05F9A3B
:1002B00001C05F9845B980E000008F5F8A30E0F3AD
:1002C0008093FC015D9A80E000008F5F8430E0F352
:1002D0008093FC015D98089514B85E9A882319F004
:1002E0005A9A5B9802C05B9A5A98662311F05F9AFB
:1002F00001C05F9880E000008F5F8A30E0F3809358
:10030000FC015D9A80E000008F5F8430E0F3809311
:10031000FC0183B15D980895CF93C82F0E944703D5
:100320002FE38DE093E0215080409040E1F700C042
:10033000000082E791E023C060E08C2F0E946C01F6
:1003400084FF0CC02FE986E891E021508040904066
:10035000E1F700C000008CE891E011C060E08C2F54
:100360000E946C0187FF0DC02FE986E891E02150C3
:1003700080409040E1F700C000008CE991E00E94CD
:10038000F10360E08C2F0E946C018F7EA9F6CF9163
:100390000895CF93C82F0E944B018C2FCF910C94BE
:1003A0008C01809100018F3FD1F04091FD014F738E
:1003B000406460E00E94C9014091FE014770486BB3
:1003C00060E0809100010E94C9014091FF0161E05D
:1003D000809100010E94C9018FEF80930001089570
:1003E0001F93CF93DF9300D01F92CDB7DEB79091CC
:1003F0000001981308C09091FE01961304C09091DB
:10040000FD01941741F14B836A8389830E94D101D6
:100410006A816093FE014B814093FD018981809345
:1004200000014F73406460E00E94C9014091FE01E9
:100430004770486B60E0809100010E94C9011091F3
:10044000000161E0812F0E946C0161E0812F0E9418
:100450006C018093FF010F900F900F90DF91CF916F
:100460001F910895CF93DF93C0E040E460E080E007
:100470000E94C9014C2F486B60E080E00E94C901D6
:10048000D0E440E061E080E00E94C901D150C9F7AA
:10049000CF5FC83051F7C0E040E460E081E00E94E7
:1004A000C9014C2F486B60E081E00E94C901D0E493
:1004B00040E061E081E00E94C901D150C9F7CF5FFF
:1004C000C83051F78FEF80930001DF91CF910895ED
:1004D0000E9447032FE986E891E021508040904038
:1004E000E1F700C000008BEA91E00E94F10314B82C
:1004F0008AB18C6E8AB98BB18F718BB98BB18C60DC
:100500008BB92FE986E891E0215080409040E1F7D7
:1005100000C0000085EC91E00E94F1038EED91E0B7
:100520000E94F1038DEE91E00E94F1034FE360E041
:1005300080E00E94C9014FE360E081E00E94C901B0
:1005400040EC60E080E00E94C90140EC60E081E0A6
:100550000E94C9010C943202CF93DF93D42FC62F8F
:10056000C770482F4F736F7370E093E07595679570
:100570009A95E1F786FB882780F90E94F001209187
:10058000FF0181E090E00C2E01C0880F0A94EAF789
:10059000DD2311F0822B02C0809582238093FF011E
:1005A000DF91CF910895962F990F960F990F909301
:1005B0000002880F880F880F809301020895AF9280
:1005C000BF92CF92DF92EF92FF920F931F93CF9340
:1005D000DF93803218F0813818F403C080E201C044
:1005E00080E895E0899F700111248CED9FEFE80E63
:1005F000F91E00E010E0CC24C394D12CB02EF701FA
:10060000E00FF11FA490C0E0D0E08C2F95E0B91668
:1006100079F0C73069F0A6010C2E01C0440F0A948E
:10062000EAF74A21609101026C0F8091000206C036
:1006300060910102680F8091000240E08B0D0E94E2
:10064000AC022196C830D10501F70F5F1F4F06306D
:100650001105A1F6809100028A5F80930002DF916C
:10066000CF911F910F91FF90EF90DF90CF90BF90AF
:10067000AF900C94D101CF93DF93EC0102C00E94A4
:10068000DF0289918111FBCFDF91CF91089588EC32
:1006900090E00E949D049C0190930B0280930A02BB
:1006A00088539F4F90930302809302023093070276
:1006B000209306023093050220930402109209024F
:1006C0001092080278945498539A8DE08093C80051
:1006D00080E28093CC008CE090E09093CE008093F9
:1006E000CD00EAECF0E08081826080830895109272
:1006F00009021092080281E08093C80080910A02EA
:1007000090910B020C9438051F920F920FB60F9226
:1007100011248F939F93EF93FF93E0910602F09142
:1007200007028091040290910502E817F907B9F0D9
:1007300081918093D200F0930702E09306028091AA
:10074000020290910302E817F90791F480910A02DE
:1007500090910B02909307028093060209C01092B9
:100760000902109208028091C90082608093C9003A
:10077000FF91EF919F918F910F900FBE0F901F905F
:1007800018958091080290910902019739F1E09142
:100790000602F09107028091040290910502E81789
:1007A000F907E1F081E090E090930902809308025C
:1007B00081918093D200F0930702E093060280912A
:1007C000020290910302E817F90741F480910A02AE
:1007D00090910B02909307028093060280E090E0D4
:1007E0000895CF93DF93FC0101900020E9F7319742
:1007F000E81BF90B9C01DC011EC0C0910402D091E2
:1008000005028D91888380910402909105020196E2
:1008100090930502809304024091020250910302DA
:100820008417950741F480910A0290910B029093EE
:10083000050280930402CD01821B930B8E179F0744
:10084000E4F20E94C10380E090E0DF91CF9108952F
:100850000E9447033D9A2FE986E891E021508040AD
:100860009040E1F700C0000087E091E00E94F103B2
:100870000E94680287E191E00E94F1036BE080E052
:100880000E94D30288E291E00E943B036BE082E089
:100890000E94D30283E391E00E943B036BE083E07C
:1008A0000E94D30289E391E00E943B030E94D101A0
:1008B0008FE391E00E94F103B12C00E010E0CB2C1B
:1008C000D12C2FC09E012E0D3F1D277033272430C1
:1008D0003105A4F441E06C2F8A2D0E94AC022FE96F
:1008E00086E891E0215080409040E1F700C0000090
:1008F00086E591E00E94F103459A0AC040E06C2F22
:100900008A2D0E94AC0282E691E00E94F103459894
:100910002196C034D105B1F60F5F1F4F0034110589
:1009200039F0A02EC0E0D0E07801EC0CFD1CCACF5D
:10093000B39428E0B212C1CFBFCF0F931F93CF93D0
:10094000DF938230910510F482E090E0E0910E0296
:10095000F0910F0220E030E0C0E0D0E023C0408101
:10096000518148175907A8F04817590761F4828147
:100970009381209719F09B838A832EC090930F0256
:1009800080930E0229C02115310529F04217530723
:1009900010F0A90102C0BE01DF0102811381EF0145
:1009A0009A01F8013097D9F62115310509F1281B74
:1009B000390B2430310590F412968D919C91139748
:1009C0006115710521F0FB019383828304C090932C
:1009D0000F0280930E02FD01329644C0FD01E20F2A
:1009E000F31F81939193225031092D933C933AC088
:1009F00020910C0230910D02232B41F42091030130
:100A00003091040130930D0220930C0220910101DA
:100A1000309102012115310541F42DB73EB74091C7
:100A2000050150910601241B350BE0910C02F09159
:100A30000D02E217F307A0F42E1B3F0B281739070E
:100A400078F0AC014E5F5F4F2417350748F04E0F2A
:100A50005F1F50930D0240930C028193919302C04B
:100A6000E0E0F0E0CF01DF91CF911F910F91089569
:100A7000EF92FF920F931F93CF93DF93009709F4A8
:100A80008EC0DC01129713961C921E921297E09072
:100A90000E02F0900F02E114F10489F42D913C91C3
:100AA0001197280F391F80910C0290910D02821727
:100AB000930789F5B0930D02A0930C0270C0E70173
:100AC00020E030E001C0EA01CA17DB0738F44A81B0
:100AD0005B819E0141155105B1F722C0AC01425026
:100AE0005109FA01D383C28300811181BC01600FD7
:100AF000711F6C177D0761F468817981600F711F28
:100B00006E5F7F4F718360836A817B8173836283B1
:100B10002115310529F4B0930F02A0930E023FC0B6
:100B2000F901B383A283E90149915991C40FD51FFB
:100B3000AC17BD0771F4DC019E918E91840F951F57
:100B400002969183808312968D919C911397938343
:100B50008283A0E0B0E002C0D7017C01F70182816E
:100B600093810097C9F7C701029620813181820FD6
:100B7000931F20910C0230910D022817390779F448
:100B8000109729F410920F0210920E0204C01396CF
:100B90001C921E921297F0920D02E0920C02CDB7B9
:100BA000DEB7E6E00C94E0052A88398848885F843F
:100BB0006E847D848C849B84AA84B984C884DF80FD
:100BC000EE80FD800C811B81AA81B981CE0FD11DE1
:100BD0000FB6F894DEBF0FBECDBFED010895F894B7
:020BE000FFCF45
:100BE200FF000010022000696E206D61696E2C20EA
:100BF200504335206F6E004C434420696E6974691E
:100C0200616C697A65640A00313238783634206C56
:100C120063640068656C6C6F00776F726C64006669
:100C2200696E69736865642077726974696E67209A
:100C3200737475666600626172626572706F6C656C
:100C420021007475726E696E67206F6666204C456E
:100C52004400696E73696465204C43445F7761693F
:100C6200742066756E6374696F6E0A004C4344208B
:100C7200726573657420686967680A004C43442092
:100C82006275737920686967680A00496E736964DE
:100C920065204C43445F696E69742066756E6374A7
:100CA200696F6E0A005374617274696E67207761AE
:100CB20069742066756E6374696F6E730A0057619A
:100CC20069742043533120646F6E650A005761696D
:0C0CD200742043533220646F6E650A00EA
:00000001FF
